:020000040800F2
:10000000E80D002029020008CB3D0008E93800086F
:10001000C93D0008CD270008793E00080000000017
:10002000000000000000000000000000CF3D0008BC
:100030008128000800000000CD3D0008D13D0008E7
:10004000430200084302000843020008430200087C
:10005000430200084302000843020008430200086C
:10006000430200084302000843020008430200085C
:10007000430200084302000843020008430200084C
:10008000430200084302000843020008430200083C
:10009000430200084302000843020008430200082C
:1000A000430200084302000843020008430200081C
:1000B000430200084302000843020008430200080C
:1000C00043020008430200084302000843020008FC
:1000D00043020008430200084302000843020008EC
:1000E00043020008430200084302000843020008DC
:1000F00043020008430200084302000843020008CC
:1001000043020008430200084302000843020008BB
:1001100043020008430200084302000843020008AB
:10012000D1270008430200084302000843020008E8
:10013000430200084302000843020008430200088B
:10014000430200084302000843020008430200087B
:10015000430200084302000843020008430200086B
:10016000430200084302000843020008430200085B
:100170004302000843020008430200080000000098
:10018000430200084302000800F002F800F03CF8C7
:100190000AA090E8000C82448344AAF10107DA45E2
:1001A00001D100F031F8AFF2090EBAE80F0013F0F8
:1001B000010F18BFFB1A43F001031847343F00003A
:1001C000543F0000103A24BF78C878C1FAD85207CB
:1001D00024BF30C830C144BF04680C6070470000C1
:1001E0000023002400250026103A28BF78C1FBD840
:1001F000520728BF30C148BF0B6070471FB503F0DE
:1002000023FF1FBD10B510BD00F03DF91146FFF7EB
:10021000F5FF03F06BFE00F05BF903B4FFF7F2FFAC
:1002200003BC00F063F90000094880470948004713
:10023000FEE7FEE7FEE7FEE7FEE7FEE7FEE7FEE796
:10024000FEE7FEE704480549054A064B70470000F3
:10025000693E000889010008E8070020E80D002039
:10026000E8090020E809002053EA020C00F0698048
:100270002DE9F04B4FF00006002B1FBFB3FA83F5BA
:1002800003FA05F424FA05F65E4012BF1643B2FAEB
:1002900082F502FA05F4C5F120051EBF22FA05FC1D
:1002A00044EA0C04203556EA044C4FEA144418BFC3
:1002B000641C4FF000084FF00009904271EB030CF2
:1002C00039D3002919BFB1FA81F701FA07F6B0FA5C
:1002D00080F700FA07F6C7F120071EBF20FA07FCD7
:1002E00046EA0C062037B6FBF4FCA7EB0507103FE7
:1002F00007F01F0BCBF120060CFA0BFB2CFA06F6CD
:1003000044BFB3460026202FA4BF5E464FF0000B2B
:100310005BEA060C08BF4FF0010B19EB0B09ABFBB6
:10032000027C48EB0608C01B06FB02CC0BFB03CC8F
:1003300071EB0C01C1E70B46024641464846BDE859
:10034000F08B13B54FF000004FF00001AFF30080C9
:10035000BDE81C40704701F0FF03114601B543EAB8
:10036000032242EA024200F06EF801BD4FF00002A3
:1003700000B5134694469646203922BFA0E80C509B
:10038000A0E80C50B1F12001BFF4F7AF090728BF76
:10039000A0E80C5048BF0CC05DF804EB890028BFF2
:1003A00040F8042B08BF704748BF20F8022B11F01B
:1003B000804F18BF00F8012B704700004FF0013C40
:1003C00050F8042B51F8043B9A4221D1A2EB0C03C4
:1003D000934313EACC1317D150F8042B51F8043B84
:1003E0009A4215D1A2EB0C03934313EACC130BD121
:1003F00050F8042B51F8043B9A4209D1A2EB0C03AC
:10040000934313EACC13DBD04FF00000704700BFDA
:10041000D01A01BAB1FA81F101F0180122FA01F003
:10042000CB40C1F12001DBB2C0B2C01A2CFA01F3FB
:10043000D11A914311EAC311E6D170477047704752
:1004400070474FF000020429C0F0128010F0030C36
:100450003FF48EAFCCF1040CBCF1020F18BF00F8D2
:10046000012BA8BF20F8022BA1EB0C01FFF780BFE6
:100470005FEAC17C24BF00F8012B00F8012B48BFC4
:1004800000F8012B7047754600F02CF8AE460500C9
:100490006946534620F00700854618B020B5FFF79F
:1004A000D1FEBDE820404FF000064FF000074FF0AE
:1004B00000084FF0000B21F00701AC46ACE8C00982
:1004C000ACE8C009ACE8C009ACE8C0098D4670478B
:1004D00010B50446AFF300802046BDE81040FFF79A
:1004E0009CBE0000004870472407002001491820E6
:1004F000ABBEFEE7260002007047000010B41A4BA6
:100500001C68236823F001032360E0606260174BDE
:100510001868036823F001030360C1604260144B54
:100520001B68144A9A60144B1A689389138913F054
:10053000020FFBD0036843F001030360236843F01C
:10054000010323600D4B1B681B6813F4001FF9D0D7
:10055000236823F001032360036823F00103036091
:100560005DF8044B704700BF940700208C07002003
:100570009007002000007D0F8407002088070020DE
:1005800030B583B00D46144600230193334A106002
:10059000334A1370334B984203D003F5806398427B
:1005A00002D12F4B01221A700CB100232380038843
:1005B00003F03803019303889BB223F038039BB206
:1005C0000380038843F01003038003889BB223F069
:1005D00001039BB20380244B9D4230D92146012068
:1005E00001F046FD034638B31C4B1A6813889BB2D2
:1005F00023F038039BB21380019B11880B439BB2FD
:100600001380194B9D4203D9138843F001031380D3
:10061000FA2003F025FAFA2003F022FAFA2003F078
:100620001FFAFA2003F01CFA2346104A002108465C
:1006300000F0D9F8034650B9184603B030BD214642
:10064000022001F015FD03460028CDD1F4E708494A
:10065000064801F097FF0123EEE700BF8407002062
:10066000E207002000380040FF2C31011800002074
:10067000904000080D4B00221A800D4B19680B8921
:1006800013F0020F08D1094A138801339BB213807B
:100690004EF660229342F0D9087300BF00BF054BAD
:1006A0001B780BB100BF00BF704700BFE007002000
:1006B00084070020E2070020194B00221A8008E07E
:1006C00017490B8801339BB20B804EF660218B4299
:1006D0000CD8144B1A68138913F0800FF0D11389CA
:1006E00003F4C053002BEBD100E09389138903F08E
:1006F0004103002BF9D11073094B00211980138994
:1007000013F0010F08D106490B8801339BB20B800F
:100710004EF660218B42F2D99089C0B2704700BF7B
:10072000E00700208407002010B582B0049C0194EB
:10073000009313460A460146282000F061FF02B0EC
:1007400010BDF0B583B00C4616461F46089D88B113
:10075000014600220F2A04D88B5C13B10132D2B2B9
:10076000F8E7013200950023D2B20720FFF7DCFF43
:10077000034648B394B1002201E00132D2B20F2AFD
:1007800002D8A35C002BF8D1013200950023D2B22D
:1007900021460820FFF7C8FF0346A8B13CB100225C
:1007A0000F2A06D8A35C23B10132D2B2F8E70123A5
:1007B0000AE0013200953B46D2B231460920FFF7EC
:1007C000B3FF034600B10123184603B0F0BD00B5E6
:1007D00083B0009100231A460146012000F0C9FFB2
:1007E00003B05DF804FBF0B58BB007460E46154626
:1007F0001C462022002102A8FFF7ADFD0CB100230A
:100800002380204601F033FE034610B918460BB092
:10081000F0BD072000F082FF012001F0E7FB1F235D
:100820008DF8083000228DF809208DF80A300094E8
:100830001346032102A801F007FB48B377B19DF8E6
:100840000A309DF80B2002EB03229DF80C3003EBDD
:1008500002229DF80D3003EB02233B6016B19DF898
:100860000E3033700DB100230AE00123CEE703F10F
:1008700008020AA90A4412F8202CEA5401339BB258
:100880009DF80F209A42F2D80022EA540123BDE7D6
:100890000023BBE730B58BB005460C4609B10023F9
:1008A0000B80204601F0E3FD034610B918460BB05B
:1008B00030BD072000F032FF012001F097FB10232C
:1008C0008DF8083000238DF809301A4607E00AA990
:1008D000194411F8201C0A44D2B201339BB2012BF7
:1008E000F5D98DF80A20009400231A46032102A8A6
:1008F00001F0AAFA20B19DF80A302B700123D5E748
:100900000023D3E730B58BB005460C4620220021EA
:1009100002A8FFF720FD0CB100232380204601F040
:10092000A6FD034610B918460BB030BD072000F0F5
:10093000F5FE012001F05AFB12238DF80830002348
:100940008DF809301A4607E00AA9194411F8201C4D
:100950000A44D2B201339BB2012BF5D98DF80A209B
:10096000009400231A46032102A801F06DFA20B179
:100970009DF80A302B700123D5E70023D3E730B56B
:100980008BB004460D462022002102A8FFF7E3FCAD
:100990000DB100232B80284601F069FD034610B9F4
:1009A00018460BB030BD072000F0B8FE012001F062
:1009B0001DFB11238DF8083000238DF809301A46ED
:1009C00007E00AA9194411F8201C0A44D2B20133E5
:1009D0009BB2012BF5D98DF80A20009500231A4609
:1009E000032102A801F030FA80B100230E2B09D8B0
:1009F0009A1C0AA90A4412F8202CE25412B10133BD
:100A00009BB2F3E70023E3730123C9E70023C7E7A1
:100A100070B5064601F0DAFAFF2804D1034600203B
:100A200006B1337070BD01F0D1FA03460028F7D04B
:100A30000024052C0FD80A4B1D5D284600F0EAFF64
:100A40000A2003F00DF801F0C1FA0346854204D1F3
:100A50000134A4B2EDE70120E2E70020E0E700BFA7
:100A6000E840000810B584B00446002302930193C7
:100A700005E0019B01330193029B01330293029B2A
:100A8000A3421FD2029B23F0250343F00103DBB2F4
:100A90008DF803309DF8030000F0BCFF0A2002F03F
:100AA000DFFF01F093FA8DF80F009DF80F20D2B20E
:100AB0009DF80330DBB29A42DBD0019BDBB28DF8AC
:100AC0000230D9E7412000F0A5FF0A2002F0C8FF5C
:100AD000019804B010BD2DE9F0438BB0054688465F
:100AE00017469946129E149C2022002102A8FFF767
:100AF00032FC0CB100232380204601F0B8FC0346F1
:100B000018B918460BB0BDE8F083072000F006FEC8
:100B1000012001F06BFA14238DF8083001238DF8C1
:100B200009308DF80A5015358DF80B5000940023CC
:100B30001A46042102A801F087F900283FD09DF849
:100B40000B3053B1B8F1000F02D0002388F8003009
:100B5000BFB300233B700123D3E7B8F1000F03D0EC
:100B60009DF80C3088F8003017B19DF80D303B70BF
:100B7000B9F1000F07D09DF80E209DF80F3003EB60
:100B80000223A9F8003076B1002308E003F108023F
:100B90000AA90A4412F8202CF25401339BB20F2BFD
:100BA000F4D90023F373139B6BB19DF821209DF8BA
:100BB000223003EB0223139A13800123A1E70023C1
:100BC0009FE701239DE701239BE700002DE9F04308
:100BD00085B080460C4617461E460C9D91499248AA
:100BE00001F0D0FC002811DD90498F4801F0CAFCCB
:100BF000002817DDB8F1000F78D000221F2A1ED878
:100C000018F80230DBB10132D2B2F7E70095334673
:100C10003A462146404600F00DF90346184605B015
:100C2000BDE8F0838249804801F0ACFC0028E1DB9C
:100C3000284600F0F7F9FA2002F012FFDAE71A2A44
:100C400019D91B3A5FFA82F91B220095002341460D
:100C50001846FFF769FD03460028DFD0B9F1000F01
:100C60000CD1002C42D000223F2A16D8A35CA3B19D
:100C70000132D2B2F8E74FF00009E6E70095002311
:100C80004A46092A28BF092208F11B011020FFF754
:100C90004BFD03460028E4D1C0E71A2A32D91B3A9B
:100CA0005FFA82F81B220095002321460120FFF7FE
:100CB0003BFD03460028B1D0B8F1000F16D0B8F1C3
:100CC0001A0F22D9A8F11B025FFA82F94FF01B0814
:100CD00000950023424604F11B012020FFF724FD6C
:100CE000034600289AD0B9F1000F11D100953B4678
:100CF00000221146FF20FFF717FD034600288DD084
:100D000000272EE04FF00008CDE74FF00009DFE7A5
:100D1000009500234A46092A28BF092204F136011A
:100D20002120FFF701FD03460028DFD176E7FA20F6
:100D300002F096FEFA2002F093FEFA2002F090FEF6
:100D4000FA2002F08DFE0134A4B2C72CEFD9294657
:100D50000DF10F00FFF7D6FD034601280CD0013737
:100D6000BFB2B84606EB86039F4246DA4FF6FF73E2
:100D70009F4242D00024E8E79DF80F20042A31D09A
:100D800015D8022A23D0032AE9D1731E03EB83036B
:100D9000023B4345E3DC002D3CD001F017F983B260
:100DA0001B029BB243F04A032B80002336E7052A3F
:100DB0003FF434AFFF2AD2D185B301F007F983B2F3
:100DC0001B029BB243F04C032B80002326E7FDB1AE
:100DD00001F0FCF883B21B029BB243F04B032B8063
:100DE00000231BE7C5B101F0F1F883B21B029BB2EF
:100DF00043F04D032B80002310E78DB101F0E6F89E
:100E000083B21B029BB243F032032B80002305E721
:100E1000002303E7002301E70023FFE60023FDE6AC
:100E20000023FBE69840000818000020A0400008BE
:100E3000C04000082DE9F0438DB080460F461446AF
:100E40001E46149D2022002104A8FFF784FA0DB14C
:100E500000232B80284601F00AFB814618B948463A
:100E60000DB0BDE8F083072000F058FC012001F030
:100E7000BDF822238DF810301D238DF8113000238A
:100E800006E09A1C0CA8024402F8201C01339BB215
:100E90000C2B03D818F803100029F2D100238DF889
:100EA0001F3007E003F110020CA8024402F8201CD6
:100EB00001339BB20C2B02D8F95C0029F2D100233C
:100EC0008DF82D308DF82E401A4607E00CA91944F4
:100ED00011F8201C0A44D2B201339BB21E2BF5D963
:100EE0008DF82F20009500231A46202104A800F039
:100EF000ABFF002800F084809DF81290B9F1000F3C
:100F000070D1002DABD001F061F883B21B029AB210
:100F10009DF81230803313432B80A0E7FA2002F0B3
:100F20009FFDFA2002F09CFDFA2002F099FDFA20C4
:100F300002F096FD0134A4B2C72CEFD929460DF179
:100F40000F00FFF7DFFC814601280BD00137BFB24D
:100F500006EB86039F4247DA4FF6FF739F4243D06A
:100F60000024E9E79DF80F30042B2FD010D8022B76
:100F700020D0032BEAD1002D48D001F027F883B20E
:100F80001B029BB243F04A032B804FF0000966E737
:100F9000052B3FF464AFFF2BD8D1002D3CD001F0DE
:100FA00015F883B21B029BB243F04C032B804FF029
:100FB000000954E73DB301F009F883B21B029BB26C
:100FC00043F04B032B804FF0000948E70DB300F0CE
:100FD000FDFF83B21B029BB243F04D032B804FF009
:100FE00000093CE70027B3E7CDB100F0EFFF83B283
:100FF0001B029BB243F032032B804FF000092EE717
:101000004FF000092BE74FF0000928E74FF00009E7
:1010100025E74FF0000922E74FF000091FE74FF0E6
:1010200000091CE770B58AB004462022002102A8FE
:10103000FFF791F921461B4801F0D2FA50BB064652
:101040000CB100232380204601F011FA054610B3AD
:10105000072000F063FB012000F0C8FF20238DF87B
:10106000083000228DF809208DF80A3000941346CC
:10107000032102A800F0E8FE80B19DF80A507DB976
:101080004CB100F0A3FF83B21B029BB243F04E03AE
:10109000238000E0002528460AB070BD3546FAE7F7
:1010A0000125F8E7C04000082DE9F04F8DB000247D
:1010B0000794089409940A940B948DF81B4041B14D
:1010C0000E460024FF2C08D8355D35B10134A4B29A
:1010D000F8E74F221A80A34617E0611E89B2FE2965
:1010E0000FD81F46904681461B2C12D919464448FA
:1010F00001F076FA68B90FB100233B804FF0000A87
:1011000024E04F221A804FF0000B58460DB0BDE886
:10111000F08F3B4642463146484601F00FF8834681
:10112000F3E718250497CDF80C800294CDF804A0BD
:10113000009506EB0A0336220DF11B0107A800F00B
:10114000F9FD834670B155441FFA85FAA2453ED297
:10115000A4EB0A03172BE4DCE5B25FFA8AF1691A03
:10116000CDB2DFE7002FD0D000F030FF83B21B02FA
:101170009BB23B809DF81C20FC2A18D008D8FA2A84
:101180001DD018D89C2A1ED143F04F033B80BCE7EA
:10119000FE2A08D003D843F03C033B80B5E743F078
:1011A0003A033B80B1E743F03B033B80ADE743F0BC
:1011B0005E033B80A9E743F05F033B80A5E743F074
:1011C0005F033B80A1E743F03D033B809DE70023A5
:1011D0000F2B0ED89DF81B209A420AD95A1C0CA935
:1011E0000A4412F8142C09F8032012B101339BB2FF
:1011F000EEE7002209F803204FF0010B85E700BF5E
:10120000B040000870B58AB005460E46144620224C
:10121000002102A8FFF79FF80CB10023238020468D
:1012200001F025F9034610B918460AB070BD072031
:1012300000F074FA012000F0D9FE13238DF8083075
:1012400000238DF809301A4607E00AA9194411F85D
:10125000201C0A44D2B201339BB2012BF5D98DF880
:101260000A20009400231A46032102A800F0ECFD96
:10127000E0B19DF80930002BD6D09DF90A303370CB
:1012800000231A2B0ED89DF80920023A934209DA5E
:10129000DA1C0AA90A4412F8202CEA5412B10133CC
:1012A0009BB2EEE70022EA540123BDE70023BBE72F
:1012B00000B585B0029300230193009300F0D8FBA2
:1012C00005B05DF804FB70B58AB006460D461446BD
:1012D0000AB100231380204601F0C9F8034610B973
:1012E00018460AB070BD072000F018FA012000F07F
:1012F0007DFE15238DF8083002238DF809308DF816
:101300000A608DF80B500022134607E00AA9194421
:1013100011F8201C0A44D2B201339BB2032BF5D939
:101320008DF80C20009400231A46052102A800F035
:101330008BFDA0B100240DE0FA2002F091FBFA2011
:1013400002F08EFBFA2002F08BFBFA2002F088FB01
:101350000134A4B2132CEFD99DF80A30C0E7002362
:10136000BEE700002DE9F04F93B007468A4690464D
:1013700099469DF870509DF874601E9C002306935A
:10138000079308930993ADF8163004B123802146E2
:101390008A4801F025F960B90DF116012846FFF7DA
:1013A00016FA834628B9BDF81620D3B2553B012B57
:1013B00012D98349834801F0E5F800281DDA00239B
:1013C0000F2B0CD818F8032012A9194401F8302C5F
:1013D0002AB101339BB2F3E75CB1228009E012AA83
:1013E0001344002203F8302C204601F040F88346D5
:1013F00068B9584613B0BDE8F08F234632464146DF
:1014000006A8FFF751FE83460028EDD1F1E707203B
:1014100000F084F9012000F0E9FD18238DF8283050
:1014200016238DF829308DF82A704FEA1A238DF88B
:101430002B308DF82CA000230F2B0CD812AA1A44A5
:1014400012F8301C39B15A1D12A8024402F8201CAF
:1014500001339BB2F0E705339BB206E012AA1A44AF
:10146000002102F8201C01339BB2142BF6D94FEA5D
:1014700019238DF83D308DF83E908DF83F500022B5
:10148000134607E012A9194411F8201C0A44D2B2ED
:1014900001339BB2172BF5D98DF84020009400231F
:1014A000052219210AA800F0CFFC00287AD09DF867
:1014B0002AB0BBF1000F0FD0002C76D000F086FDD3
:1014C00083B21B029AB29DF82A30C3F18003134302
:1014D00023804FF0000B8CE7002F69D0022F6AD0D9
:1014E000012F86D14FF0000941E0FA2002F0B8FA4E
:1014F000FA2002F0B5FAFA2002F0B2FAFA2002F06D
:10150000AFFA08F10108B8F1C70FEEDD029400212F
:10151000019100910B460DF115022846FFF7DBFA09
:1015200008B39DF81530062B1DD8DFE803F0041C26
:101530002D2D2D2D1000002C3FF45BAF00F046FD4B
:1015400083B21B029BB243F03303238051E7002C8C
:101550003FF44FAF00F03AFD83B21B029BB243F061
:101560003903238045E709F101091FFA89F906EBE0
:10157000860399450ADA4FF6FF73994506D04FF076
:1015800000088DF81580BEE7BB4632E7002C3FF41B
:1015900030AF00F01BFD83B21B029BB243F034035B
:1015A000238026E74FF0000B23E74FF0000B20E7E6
:1015B0004FF0010B1DE74FF0010B1AE7C040000888
:1015C000A84000081800002008B500F0FFFCFF2824
:1015D00006D010F0800F01D1002008BD0120FCE7EB
:1015E0000020FAE708B500F0F1FCFF2806D010F063
:1015F000010F01D1002008BD0120FCE70020FAE71F
:101600002DE9F0478AB005460F4691469846139C4F
:101610002022002102A8FEF79EFE0CB100232380A9
:1016200021463D4800F0DCFF064628B14FF0000A95
:1016300050460AB0BDE8F087204600F018FF824609
:101640000028F5D0072000F069F8012000F0CEFC5A
:10165000B8F11B0F01D94FF01B088DF8085008F1A5
:1016600002038DF809309DF848308DF80A308DF866
:101670000B70002308E01A1D19F803100AA8024491
:1016800002F8201C01339BB21A2B36D81FFA88F2BD
:101690009A42F0D83246002107E00AAB0B4413F817
:1016A000203C1A44D2B2013189B208469DF8093073
:1016B00002339942F1DB0AAB184400F8202C282DA4
:1016C0001ED04FF47A72013100940023C9B202A8EF
:1016D00000F0BAFBD8B19DF80AA0BAF1000F18D1FA
:1016E000002CA5D000F072FC83B21B029AB29DF8C8
:1016F0000A308033134323809AE732460021D4E72F
:10170000FF2F01D00A22DEE74FF47A72DBE7B24600
:101710008EE74FF0010A8BE7B8400008F8B50446A1
:1017200000F054FC0127A740FF437FB207EA000303
:10173000DBB298421CD006460024B4F57A7F0BD267
:1017400000F044FC0546864206D0022002F088F9EB
:101750000134A4B22E46F0E707EA0500C0B2854284
:1017600006D000F0FB0000F055F90A2002F078F9ED
:10177000F8BD2DE9F0418EB006460D461746984655
:10178000149C0CB100232380029400230193009346
:101790000DF116020DF117012846FFF79CF90346DB
:1017A000002863D09DF81730022B54D81BB19DF848
:1017B0001620002A5ED01EB9002B5DD0012B31D03F
:1017C0000EB9022B34D0204600F051FE034600280B
:1017D0004CD00720FFF7A2FF012000F007FC002EED
:1017E0004CD019238DF8183001238DF819308DF85D
:1017F0001A50A7B13B788DF81B307B788DF81C30E0
:10180000BB788DF81D30FB788DF81E304FEA182319
:101810008DF81F308DF8208007238DF819300022B5
:10182000114635E09DF81620062AC9D1572513E048
:1018300000210EAA02F8231D0294019100910B468B
:10184000284600F061F8034680B19DF81530002B62
:10185000B9D1572500E05425002C4FD000F0B6FB3D
:1018600083B21B029BB22B432380002318460EB089
:10187000BDE8F0815425EFE75725EDE71A23B1E7DE
:101880000EAB0B4413F8203C1A44D2B20131C9B25A
:1018900008469DF8193002339942F1DB0EAB18442B
:1018A00000F8202C0131009400231A46C9B206A882
:1018B00000F0CAFA20B39DF81A307BB1F42B0DD09A
:1018C00004B300F083FB83B21B029AB29DF81A3076
:1018D000C3F18003134323800023C7E79DF817302B
:1018E0000BB1002406E00123C0E7FA2002F0B8F8AB
:1018F0000134E4B2072CF8D90123B7E70023B5E798
:101900000023B3E70023B1E72DE9F0418AB0054693
:101910000F4616469846129C2022002102A8FEF788
:101920001AFD0EB1002333700CB100232380204632
:1019300000F09DFD034618B918460AB0BDE8F081D5
:101940000720FFF7EBFE012000F050FB2F238DF85E
:10195000083002238DF809308DF80A508DF80B708D
:10196000313557FA85F18DF80C10009400231A4692
:10197000052102A800F068FA002845D09DF80C3037
:10198000E3B1002C42D000F021FB83B21B029BB2DA
:1019900023809DF80C20FF2A06D0FE2A09D043F0B0
:1019A000350323800023C7E743F05A032380002335
:1019B000C2E743F05B0323800023BDE716B19DF827
:1019C0000D303370109B63B19DF80E30109A137078
:1019D0009DF80F3053709DF8103093709DF81130C2
:1019E000D370119B3BB19DF812209DF8133003EB8F
:1019F0000223119A1380B8F1000F09D09DF814301A
:101A000088F80030012397E7002395E7002393E748
:101A1000012391E710B50446002002F00DF80120E3
:101A2000FEF728FE2046FEF747FE012002F004F8EC
:101A300010BD70B50D46C9B1202900D92025064634
:101A4000002001F0F9FF0320FEF714FE0020FEF74E
:101A500033FE002405E00020FEF72EFE3055013451
:101A6000E4B2A542F7D8012001F0E6FF284670BD98
:101A70002DE9F0478EB080460C4691461F46169ED3
:101A8000BDF85CA0189D0023029303930493059373
:101A900005B12B80012F21D0284600F0E8FC00285A
:101AA0003ED10026022000F0A1FA022001F0D8FF6A
:101AB0000F21042000F0BEFC002800F02981A6427E
:101AC00008D3B4F5807F05D8F92C40F225810A208F
:101AD00001F0C6FF30460EB0BDE8F087924993484A
:101AE00000F050FD002811DA00230F2B08D8F25C1B
:101AF0000EA9194401F8302C12B101339BB2F4E75E
:101B00000EAA1344002203F8302CC5E72B461422FA
:101B1000314602A8FFF7C8FA0028BDD10026D9E750
:101B200000F0ECFC00238DF8183004228DF8192009
:101B30008DF81A90220A8DF81B208DF81C408DF824
:101B40001D30012F02D000210B4631E001238DF81A
:101B50001D30002306E09A1D0EA8024402F8201C46
:101B600001339BB20F2B05D80EAA1A4412F8301C71
:101B70000029F0D106339BB206E00EAA1A440021D8
:101B800002F8201C01339BB2152BF6D94FEA1A2319
:101B90008DF82E308DF82FA016238DF81930D2E74E
:101BA0000EAA1A4412F8202C1144C9B201339BB278
:101BB00018469DF8192002329342F1DB0EAB18440F
:101BC00000F8201C9DF819100331009500231A46D7
:101BD000C9B206A800F038F9002800F087809DF807
:101BE0001A30002B5AD025B100F0F0F980B2000273
:101BF00028809DF81A30F83B072B47D8DFE803F020
:101C00003E362E261E160E041DB12B8843F01203FD
:101C10002B80C82001F024FF002643E7002D67D069
:101C20002B8843F013032B8000263BE7002D61D067
:101C30002B8843F014032B80002633E7002D5BD064
:101C40002B8843F015032B8000262BE7002D55D061
:101C50002B8843F018032B80002623E7002D4FD05C
:101C60002B8843F019032B8000261BE7002D49D059
:101C70002B8843F01A032B80002613E7002D43D056
:101C80002B8843F01B032B8000260BE7002D3DD053
:101C90002B8843F01F032B80002603E70B2001F065
:101CA000DFFE002611E0202716E0F9B208EB06005F
:101CB00000F07EFB0B2001F0D3FE284600F044FC30
:101CC00000283FF4EFAE3E44B6B2A642BFF4EAAEFF
:101CD000A31B202BE7DC9FB2154B1B78002BE4D015
:101CE000F9B208EB060000F041FBE3E70026D9E675
:101CF0000026D7E60026D5E60026D3E60026D1E664
:101D00000026CFE60026CDE60026CBE60026C9E673
:101D1000022000F06BF9D2E6142001F0A1FEE0B23F
:101D2000C043C0B2D4E600BFA8400008180000209D
:101D3000980700202DE9F04F8BB007460E469346DA
:101D400098469DF85040BDF85490BDF858A0189D95
:101D50002022002102A8FEF7FEFA0DB100232B80FD
:101D6000284600F084FB034618B918460BB0BDE8BE
:101D7000F08F0720FFF7D2FC012000F037F98DF833
:101D800008B04FEA1A238DF80A308DF80BA04FEAFD
:101D900019238DF80C308DF80D908DF80E4000232E
:101DA00008E0DA1D18F803100AA8024402F8201C03
:101DB00001339BB2A2B29A42F3D8631D8DF8093069
:101DC0000022134607E00AA9194411F8201C0A440E
:101DD000D2B201339BB21846E11D8B42F3DB0AAB52
:101DE000184400F8202C9DF809109DF85C301E2B3B
:101DF00028BF1E23C3EB431203EB8203DA0093B226
:101E0000033100950022C9B202A800F01DF8A8B164
:101E10009DF80A30A3B9AFB19DF8093033700023A3
:101E200007E09A1C0AA90A4412F8202CFA5401333C
:101E30009BB232789A42F4D8012396E7002394E7C4
:101E4000002392E7012390E72DE9F8430746144663
:101E5000994690F8008000F055FA0A2001F000FE43
:101E60000CE0FA2001F0FCFDFA2001F0F9FDFA2067
:101E700001F0F6FDFA2001F0F3FD2C46631E9DB241
:101E8000002CEED1089800F05FFB002800F08C8059
:101E90004FF47A7606FB09F636094A4BA3FB063661
:101EA000F60901362546A946B54206D2089800F043
:101EB000FDFA10B90135ADB2F5E7B14501D3002007
:101EC00073E020213846FFF7B4FD0A2001F0C8FD79
:101ED0000720FFF723FC7978002304E03A5D1344E0
:101EE000DBB20134A4B28A1C9442F7DB39448A780D
:101EF0009A420DD0089B002B59D000F067F883B2AE
:101F00001B029BB243F03003089A138000204CE080
:101F10003B7823F08003434512D0B8F1360F0DD043
:101F2000089B002B45D000F051F883B21B029BB2F6
:101F300043F03103089A1380002036E0252BEFD1BF
:101F40000021214800F04CFB002834D1BB78782BCD
:101F500001D0012029E0089B002B2ED000F036F89C
:101F600083B21B029BB2089A1380BA78032A15D851
:101F7000DFE802F02502080E43F04503089A1380BB
:101F8000002012E043F04603089A138000200CE082
:101F900043F04703089A1380002006E043F048030B
:101FA000089A1380002000E00020BDE8F88300209C
:101FB000FBE70020F9E70120F7E70020F5E7012023
:101FC000F3E700BFC55A7C0AC040000810B50020E6
:101FD00001F032FD0420FEF74DFB0020FEF76CFB04
:101FE0000446012001F028FD204610BD2DE9F041F6
:101FF0008046FFF7EBFF0646012707FA08F77FB296
:1020000047EA0003DBB298420FD00024B4F57A7F90
:1020100015D2FFF7DBFF0546864210D0022001F003
:102020001FFD0134A4B22E46F0E7B8F1020F04D030
:10203000B8F1050F12D10024E8E70024E6E747EAEB
:102040000500C0B285420BD0B8F1020F01D000F0FC
:10205000FB00FFF7DFFC0A2001F002FDBDE8F08184
:10206000B8F1020FF0D0B8F1050FF7D1ECE700009E
:1020700030B58FB005460C4609B100230B802046D1
:1020800000F0F5F9034610B918460FB030BD07202F
:10209000FFF744FB0120FFF7A9FF42238DF818301A
:1020A00001238DF819308DF81A50002308E0DA1C4E
:1020B0002049C95C0EA8024402F8201C01339BB2DF
:1020C0000F2BF4D91C4A03AB07CA03C31A700023B1
:1020D0008DF815300BE003F113020EA9194411F825
:1020E0002C1C0EA8024402F8201C01339BB2092BC1
:1020F000F1D91B238DF819300023194607E00EAAE9
:102100000A4412F8202C1344DBB2013189B21C2995
:10211000F5D90EAA0A4402F8203C013100940023AC
:102120001A46C9B206A8FFF78FFE08B10123ABE734
:102130000023A9E7D8400008844000082DE9F041B9
:102140008EB004460D4617461E462022002106A8E2
:10215000FEF701F90EB1002333803146674800F0E5
:102160003FFA8046002840F0C080654B0DF1080C16
:102170000FCB8CE80F0000230F2B09D8E95C0EAAC7
:102180001A4412F8302C914202D101339BB2F3E78A
:102190000F2B0CD9002306E00EAA1A4412F8302C9B
:1021A000E25401339BB20F2BF6D901239EE0304657
:1021B00000F05DF90346002800F098800720FFF743
:1021C000ADFA0120FFF712FF25238DF818308DF8A6
:1021D0001A7000231A2B09D8DA1CE95C0EA80244F5
:1021E00002F8201C11B101339BB2F3E71846D91C49
:1021F0000EAA1144002201F8202C02338DF8193068
:102200004146134607E00EAA1A4412F8202C114446
:10221000C9B201339BB21D46021D9342F3DB0EABE4
:102220001D4405F8201C9DF819101E2F28BF1E27DD
:10223000C7EB471307EB8307FB009BB20331009604
:102240000022C9B206A8FFF7FFFD002852D09DF872
:102250001A308BB1002E4FD0FFF7B8FE83B21B02AD
:102260009BB233809DF81A20FA3A052A38D8DFE865
:1022700002F0322D28231E1900230F2B0ED89DF8B3
:102280001920023A934209DADA1C0EA90A4412F81C
:10229000202CE25412B101339BB2EEE70022E2544B
:1022A000012323E043F03A03338043461EE043F02A
:1022B0003B033380434619E043F03C0333804346FD
:1022C00014E043F05E03338043460FE043F05F03C6
:1022D000338043460AE043F05F033380434605E022
:1022E00043F03D033380434600E0002318460EB020
:1022F000BDE8F0814346F9E74346F7E7A840000808
:10230000C840000869B370B506460D461F2900D9BC
:102310002025002001F090FB0220FEF7ABF9002001
:10232000FEF7A8F9002404E0305DFEF7A3F90134BC
:10233000E4B2A542F8D80B4B00221A800A4B1B6866
:102340001B8913F0800F08D0064A138801339BB213
:1023500013804EF660229342F0D9012001F06CFB0D
:1023600070BD7047E00700208407002038B50D4697
:102370001F2900D920250D4A022313700023537012
:1023800005E09A1CC45C09498C540133DBB29D42C0
:10239000F7D8002001F050FB0448AA1C00F12201EC
:1023A000FEF7ACF8012001F047FB38BD9C07002088
:1023B00069B370B506460D461F2900D920250020B7
:1023C00001F03AFB0220FEF755F90020FEF752F922
:1023D000002404E0305DFEF74DF90134E4B2A5427B
:1023E000F8D80B4B00221A800A4B1B681B8913F08C
:1023F000800F08D0064A138801339BB213804EF633
:1024000060229342F0D9012001F016FB70BD7047A5
:10241000E00700208407002008B5FFF7D7FDFF285C
:1024200006D010F0020F01D1012008BD0020FCE70A
:102430000020FAE770B506460D46002404E00220AD
:1024400001F00EFB0134A4B2B4EB550F0DD24FF6E0
:10245000FF739C4207D0FFF7B9FDFF28EFD0304251
:10246000EDD0012002E0002000E0002070BD38B572
:102470000546002446F2A7139C4208D8FFF7B2F89D
:1024800080B9022001F0ECFA0134A4B2F2E75DB1A8
:10249000FFF79CFD83B21B029BB243F010032B801D
:1024A000002000E0012038BD0020FCE738B50546DB
:1024B000002446F2A7139C420DD8FFF785F828B9EF
:1024C000022001F0CDFA0134A4B2F2E795B1002365
:1024D0002B80012038BD7DB1FFF778FD83B21B0250
:1024E0002B80022001F0BCFA2B8843F016032B80CE
:1024F0000020EFE70120EDE70020EBE770B5FFF7E4
:1025000065FD00F07B0343F0020398421BD00646B2
:102510000024B4F57A7F0BD2FFF758FD05468642BA
:1025200006D0022001F09CFA0134A4B22E46F0E756
:1025300005F07B0040F00200854204D0FFF76AFA04
:102540000A2001F08DFA70BD38B50546002446F228
:10255000A7139C4207D8FFF75FFF78B9022001F06C
:102560007FFA0134F3E75DB1FFF730FD83B21B0260
:102570009BB243F011032B80002000E0012038BD06
:102580000020FCE770B400230AE00022C2540EE0F1
:102590002A78AAB10C5D9CB1A24211D10133DBB201
:1025A0001C46C518C25C533AD2B2012AEDD90E19A5
:1025B0000A5D533AD2B2012AEAD800220A55E7E767
:1025C00033789A4206D808D001D3012003E04FF0B7
:1025D000FF3000E0012070BC70470020FBE70000E6
:1025E00010B50C4601460A48FFF7CCFF002801DB76
:1025F000002010BD4CB1FFF7E9FC83B21B029BB277
:1026000043F0770323800120F3E70120F1E700BFC7
:102610001800002010B50146806B026C12F0500FBC
:1026200005D0026CD20626D500F001FA10BD016C6F
:1026300041F40071016401688A6812F0405F17D1AB
:10264000027EAAB9CA6A12F4700F02D08A685205D3
:102650000ED44A6822F020024A60016C21F4807195
:102660000164016CC90403D4016C41F001010164EF
:1026700000F0B0F910BD806BC26CBDE81040084698
:10268000104710B5806B40210164416C41F004019A
:10269000416400F0CCF910BD10B5806B00F0C6F9B4
:1026A00010BD0000464910B54A6822F440324A6025
:1026B0004A6843681A434A6001684A6822F4807293
:1026C0004A6001684A68036942EA03224A60016875
:1026D0004A6822F040724A6001684A6883681A4377
:1026E0004A6001688A6822F400628A6001688A6828
:1026F000C3681A438A60816A6FF07062D1420168D0
:102700008A6822F070628A6001688A680CD0836AE5
:102710001A438A6001688A6822F040528A60016820
:102720008A68C36A1A4301E022F040528A60016855
:102730008A6822F002028A6001688A68037E42EA9F
:1027400043028A6090F82010002901684A680FD07F
:1027500042F400624A6001684A6822F460424A60BA
:1027600001684A68174C436A04EB43331A4301E09B
:1027700022F400624A600168CA6A22F47002CA62E6
:102780000168CA6A838B104C04EB03531A43CA6274
:1027900001688A6822F400728A6001688A6890F889
:1027A000303042EA43228A6001688A6822F48062FB
:1027B0008A6001688A68406942EA8020886010BDAA
:1027C0000023014000E0FFFF0000F0FFFEE70000F3
:1027D000014800F04DBA00001406002001681823DB
:1027E000CAB2103AB2FBF3F2054B6FF30901032AA8
:1027F0009B5CC36500D9091D8165084670470000D0
:102800006A40000810B5014600208B698A6A4FF0C3
:10281000C07453B1B3F5005F15D072B1012A0CD06A
:10282000022A0AD0032A09D104E01AB1012A06D0EB
:10283000022A03D1C96AC90100D5012010BDC96AA5
:10284000A142FAD010BD002AF7D0012AF2D0022A04
:10285000F3D0032AF3D010BD30B50468256825F401
:1028600080252560046863608368402B036803D07B
:1028700099600068C26030BD9A600068C16030BD78
:10288000704772B6FEE7000078B50024009490F817
:102890003C20012A19D0012280F83C200A68072335
:1028A0000568092A13D9EE680A3A02EB42029340FE
:1028B0009E43EE600B788A680A3B03EB43039A4021
:1028C0000368DD682A43DA6010E0022078BD2E69D3
:1028D00002EB420293409E432E610B788A6803EB21
:1028E00043039A4003681D692A431A614A681F23FB
:1028F000072A13D205686E6B521E02EB82029340C8
:102900009E436E630B790A885B1E92B203EB8303CE
:102910009A4003685D6B2A435A6327E005680D2AD5
:1029200012D22E6BD21F02EB820293409E432E6383
:102930000B790A88DB1F92B203EB83039A4003688A
:102940001D6B2A431A6311E0EE6A0D3A02EB820214
:1029500093409E43EE620B790A880D3B92B203EBE3
:1029600083039A400368DD6A2A43DA62164B0568DE
:10297000144A9D4206D10D68122D03D1556845F4C5
:102980008005556005689D4218D10B68102B01D059
:10299000112B13D1536843F40003536009681029C5
:1029A0000CD10A490A4A0968B1FBF2F101EB810135
:1029B000490000E0491E00910029FBD180F83C400D
:1029C000002078BD002301400020014014000020B9
:1029D00040420F0070B5114E4FF43475104C3078F2
:1029E0002A4601280DD0A4F534710E4800F096F85F
:1029F0000023012229462046FEF75AFC01203070B0
:102A000070BD2146074800F089F8002301222946BD
:102A10000548FEF74DFC0220F1E70000040000200D
:102A2000FC020020CC0500202C00002070477047DD
:102A300070B504004FF0000503D0206C002610B1E3
:102A400007E0012070BD204600F01CF8666484F8A1
:102A50003C60206CC00610D4206C20F4885040F0FC
:102A6000020020642046FFF71DFE6664206C20F003
:102A7000020040F00100206400E0012584F83C6081
:102A8000284670BD70B586B0064614216846FDF72D
:102A90006DFC1D493068884233D11C48002501680F
:102AA00041F480610160006800F48060059017487F
:102AB0001438016841F0010101600068694600F0C6
:102AC00001000590042000900320CDE90105104885
:102AD00000F040FA104C0F4820608005C4E9010561
:102AE0000014C4E903506561C001A561C4E9075041
:102AF0002046656200F08CF908B1FFF7C2FEB463AE
:102B0000A66306B070BD00000022014044380240B8
:102B1000000002401064024014060020F8B504468C
:102B200000200E46009094F83C10012907D00121A6
:102B300084F83C1021688B68DB0702D011E002208A
:102B4000F8BD8B6843F001038B604049404B096836
:102B5000B1FBF3F101EB410100E0491E00910029B6
:102B6000FBD121688B68DB0503D58B6823F4807368
:102B70008B6021688B68DB075DD0236C40F20165B8
:102B8000AB4343F4807323644968490505D5216C40
:102B900021F4005141F480512164216CC90404D511
:102BA000616C21F00601616400E0606484F83C001F
:102BB000A16B2948274DC863A16B28480864A16B05
:102BC0002748C86421686FF02200086020684168C7
:102BD00041F0806141602068816841F480718160CA
:102BE0002168134632464C31A06B00F07BF96868CF
:102BF0001C49C006206806D0884224D1816811F0A3
:102C0000405F13D01FE08842F8D0174A904203D1AA
:102C1000D1F80423D206F1D0144A904213D1D1F84E
:102C2000041301F01F011029E8D30CE0816841F082
:102C30008041816007E0206C40F010002064606CEF
:102C400040F0010060640020F8BD00001400002086
:102C500040420F0000230140152600089926000875
:102C6000832600080020014000210140002201408D
:102C70002DE9F84304464FF00009CDF80090634871
:102C80004FF41651A56D0068B0FBF1F72E6894F86B
:102C90005C10082000FA01F131420FD021680A6867
:102CA00052070BD50A6822F004020A6094F85C10FF
:102CB0008840A860606D40F00100606594F85C1089
:102CC0004FF0010808FA01F0304208D02168496944
:102CD000090604D5A860606D40F00200606594F8B4
:102CE0005C1004208840304208D0216809688907B8
:102CF00004D5A860606D40F00400606594F85C1035
:102D000010208840304218D021680968090714D57E
:102D1000A86020680168490304D50068000308D54D
:102D2000A16C07E00168C90503D4016821F008011E
:102D30000160216C09B12046884794F85C1020207E
:102D40008840304231D021680968C9062DD5A86075
:102D500094F8350005282068016806D0490347D556
:102D6000006800031DD4616C1CE021F016010160B5
:102D70002068416921F080014161206C08B9A06C94
:102D800020B12068016821F00801016094F85C100E
:102D90003F208840A86084F8358084F83490216D05
:102DA0001FE0E16B09B120468847606D00282BD0F9
:102DB000606DC00714D0052084F8350020680168D4
:102DC00021F0010101600098401C0090B84203D836
:102DD00020680068C007F6D184F8358084F8349004
:102DE000E16C002910D001B02046BDE8F04308474F
:102DF0000168C905D5D4016821F01001016084F88B
:102E0000358084F83490CCE7BDE8F88314000020C6
:102E10002DE9F041044600F09BF906465CB1022022
:102E200084F83500002584F834502068016821F0CA
:102E3000010101600DE00120BDE8F08100F088F99A
:102E4000801B052805D920206065032084F8350003
:102E5000F2E720680068C007F0D1226811682048B6
:102E60000140D4E901031843D4E90336334318433E
:102E700063691843A3691843E3691843236A184335
:102E80000843616A042903D1D4E90B1319430843A9
:102E9000106020684069666A20F0070130460E43E2
:102EA000012704280CD1A06A0643E06A40B12046FD
:102EB000FFF7A8FC20B14020606584F83570BAE7C0
:102EC000206846612046FFF789FC94F85C203F218A
:102ED00091408160656584F835700020ACE70000A2
:102EE0003F8010F02DE9F0410446866D90F83400E3
:102EF000002501280DD0012084F8340094F83570A5
:102F00000020012F07D084F8340002252846BDE8B0
:102F1000F0810220FBE7022784F8357060652046C7
:102F2000FFF79AFC94F85C103F208840B06020685E
:102F3000016841F016010160206C20B12068016831
:102F400041F0080101602068016841F00101016061
:102F5000DCE700002DE9F84FDFF8BCA100220125D5
:102F600003264FF00F090AF1040BAAF1040E00BF6B
:102F70000B6805FA02F42340A34270D10F7907F0E1
:102F80000307012F01D0022F16D187684FEA4208AC
:102F900006FA08FC27EA0C07D1F80CC00CFA08FC6A
:102FA0004CEA070CC0F808C04768A7430C79C4F383
:102FB000001494403C4344600C79E443A4070AD0D5
:102FC000C4684FEA420C06FA0CF7BC438F6807FA54
:102FD0000CF72743C7600C7904F00304022C12D1CC
:102FE000D40800EB840CDCF820405707FF0E09FAE8
:102FF00007F824EA0804D1F8108008FA07F848EA2C
:103000000408CCF8208004684FEA420C06FA0CF75A
:10301000BC430F7907F0030707FA0CF72743076053
:103020004C6814F4403F70D03C4C276847F480470C
:103030002760246822F0030704F480440094384C8D
:1030400007EB040CDCF8084897074FEA177809FAF1
:1030500008F7BC43334FB84202D1002724E054E0C4
:10306000314FB84201D101271EE0304FB84201D1A3
:10307000022719E02E4FB84201D1032714E02D4F4B
:10308000B84201D104270FE02B4FB84201D10527E8
:103090000AE02A4FB84201D1062705E0284FB8427E
:1030A00001D1072700E0082707FA08F72743CCF8E3
:1030B0000878DAF800405746D1F804C09C435FEA2C
:1030C000CC2C00D51C433C60DBF800405F46D1F8B7
:1030D00004C09C435FEA8C2C00D51C433C60DEF8A6
:1030E00000407746D1F804C09C435FEA8C3C00D591
:1030F0001C433C60084F083F3C68D1F804C09C4327
:103100005FEACC3C00D51C433C60521C102AFFF403
:103110002FAFBDE8F88F0000083C01404438024062
:10312000003001400000024000040240000802405C
:10313000000C02400010024000140240001802403F
:10314000001C02400AB1816170470904FBE70000DE
:10315000014880687047000008000020024881682C
:103160000278114481607047080000200B4810B5B8
:10317000016841F400710160016841F480610160FF
:10318000016841F480710160032000F06FF80020B5
:1031900000F006F800F024F8002010BD003C0240CA
:1031A00070B50D4D04464FF47A712878B1FBF0F0FC
:1031B0000A490968B1FBF0F000F082FB48B9102C15
:1031C00007D200222146501E00F030F800206C602B
:1031D00070BD012070BD0000080000201400002018
:1031E0000A4808B5016841F480410160006800F4B4
:1031F000804000900548001F016841F08051016047
:10320000006800F08050009008BD00004438024083
:10321000002809DB00F01F020121914040098000D5
:1032200000F1E020C0F8001170470000F0B40E4B30
:103230001B680C46C3F30223C3F10705042D00D914
:103240000425191D072901D2002300E0DB1E0126F9
:1032500006FA05F1491E214099409E40761E16400F
:103260003143F0BC00F009BE0CED00E0064900F06F
:10327000070208684FF6FF03184040EA0220034A9D
:1032800010430860704700000CED00E00000FA05F4
:103290002DE9F0470E46050065D0DFF81481D8F817
:1032A0000000F7B200F00700B04207D288F80070C3
:1032B000D8F8000000F00700B04254D128683D4C17
:1032C000810712D5400703D5206840F4E050206004
:1032D0002878000703D5206840F46040206020680B
:1032E000A96820F0F000084320602878C0072DD09E
:1032F000304968680839012812D0022813D0032801
:1033000011D00968890700292DDA216821F003010D
:1033100001432160FFF71CFF814641F2883A0EE02D
:1033200009688903EFE709688901ECE7FFF710FFF7
:10333000A0EB0901514502D90320BDE8F0872068C0
:10334000696800F00C00B0EB810FEFD1D8F80010E5
:10335000404601F00701B14207D90770006800F04C
:103360000700B04201D00120E7E72878400705D5E3
:103370002068E96820F4E0500843206028780007BE
:1033800006D52068296920F4604040EAC100206029
:1033900000F01EF82168084AC1F30311515CC840CF
:1033A0000649086006480068FFF7FAFE0020C4E7F7
:1033B000003C02400838024072400008140000201F
:1033C0000C00002001480068704700001400002035
:1033D000154810B5006810F00C02144813D04110C5
:1033E000042A0FD0082A0ED10F4C241F226823680C
:1033F00002F03F025B0207D52068C0F38810A0FBF3
:10340000010106E0084610BD2168C1F38811A1FB47
:1034100000010023FCF728FF2168C1F30141491C8A
:103420004900B0FBF1F010BD083802400024F40060
:103430002DE9F84F04006ED02078DFF84C93C007D8
:10344000A9F104054AD009F104000168C1F3810122
:10345000012908D00068C0F3810002280AD1D9F8F8
:103460000000400206D52868800337D56068002830
:10347000E1D033E06068B0F5803F10D0B0F5A02F08
:10348000286810D020F480302860286820F480203C
:1034900028606068A8B1FFF75BFE06460DE028686B
:1034A00040F48030F4E740F480202860F7E700BF64
:1034B000FFF74EFE801B642873D828688003F7D579
:1034C0000CE0FFF745FE064605E000BFFFF740FEB3
:1034D000801B6428F0D828688003F7D42078DFF8B0
:1034E000AC8280074FF0000A3ED5A748001D016856
:1034F00011F00C0F08D00068C0F3810002280BD136
:10350000D9F80000400207D42868800716D5E06883
:10351000012800D112E033E1E068B8B10120C8F819
:103520000000FFF715FE064605E000BFFFF710FE9E
:10353000801B0228C0D828688007F7D52868216931
:1035400020F0F80040EAC10028600DE0C8F800A0B3
:10355000FFF7FEFD064604E0FFF7FAFD801B022898
:103560001FD828688007F7D42078000722D5864F17
:1035700087486169703771B101210160FFF7E8FD8B
:10358000064604E0FFF7E4FD801B022809D83868EE
:103590008007F7D50EE0C0F800A0FFF7D9FD06467A
:1035A00005E082E0FFF7D4FD801B02287DD8386853
:1035B0008007F7D42078400768D5DFF8CCB1002722
:1035C0000BF13C0BDBF80000C0000BD4DBF8001063
:1035D00041F08051CBF80010DBF80000012700F02B
:1035E000805000906B4E3068C00510D4306840F4B5
:1035F00080703060FFF7ACFD009005E0FFF7A8FD9C
:103600000099401A022850D83068C005F6D55E4EA1
:10361000A0686C3601280FD00528306810D020F043
:1036200001003060306820F004003060A068B8B15C
:10363000FFF78EFD00900FE0306840F00100F4E7E6
:1036400040F004003060F7E7FFF782FD0099411A6F
:1036500041F28830814266D830688007F4D50EE0A8
:10366000FFF776FD009007E0FFF772FD0099411A21
:1036700041F28830814256D830688007F4D42FB1A7
:10368000DBF8001021F08051CBF80010A069C8B31E
:103690003D49091D0968C1F3810102294AD0022868
:1036A000504607D0C8F8600000E03CE0FFF750FD4E
:1036B00004463BE04746C8F86000FFF749FD064670
:1036C00005E000BFFFF744FD801B02282BD82868C7
:1036D0008001F7D4D4E907010843A16A2E4A4908BA
:1036E00002EB0141626A41EA8211084394F82C100E
:1036F00040EA0161C9F8001001203866FFF728FD93
:10370000044606E03EE000BFFFF722FD001B022852
:1037100009D828688001F7D534E000BFFFF718FD0D
:10372000001B022802D90320BDE8F88F2868800119
:10373000F4D427E00128F7D0D9F80000E26900F4BA
:10374000800191421CD1226A00F03F01914217D1C1
:1037500047F6C071626A0140B1EB821F10D1A26AC4
:103760004FF0FF3300F4403103EB5202B1EB024F54
:1037700006D194F82C1000F07060B0EB016F01D00E
:103780000120D1E70020CFE7043802400000474283
:10379000800E4742007000400000FFFF70B504003B
:1037A00009D0606A002540B125616561A56294F881
:1037B000510040B10CE0012070BD6068B0F5827F1F
:1037C000F4D0E561F2E784F85050204600F044F868
:1037D000022084F851002068016821F04001016056
:1037E000A088218900F4827001F404410843A18972
:1037F00001F400610843217C01F002010843217DAE
:1038000001F001010843218B01F400710843217F7D
:1038100001F03801084394F8201001F080010843BA
:10382000218D01F40051084321680860A06904213A
:1038300001EA104094F8241001F0100108432168B7
:1038400048602068C16921F40061C161656501209B
:1038500084F85100002070BD10B586B004461421D4
:103860006846FCF783FD13492068884220D112483E
:103870000021026842F480520260006800F4805027
:1038800005900D481438026842F001020260006899
:1038900000F001000590E02000900220CDE9010138
:1038A000032003900520049069460448FFF752FB6B
:1038B00006B010BD00300140443802400000024014
:1038C00010B5401EB0F1807F01D3012010BD4FF034
:1038D000E02460610F21601700F0CFFA0020A061A2
:1038E00007202061002010BDFEE700002DE9F04315
:1038F000184C87B00025206840F008002060206840
:10390000154E00F0080005901020306001274FF0A0
:103910000308DFF84490CDE90007CDE90258A9F18A
:10392000180969464846FFF715FB206840F0020079
:103930002060206800F00200059020203060CDE972
:103940000007CDE9025869464846FFF703FB07B078
:10395000BDE8F083303802401808024010B5FFF788
:10396000C5FFBDE8104000F001B8000030B52148A7
:1039700087B00025016841F00101016000686946D7
:1039800000F001000590E02000900220019003204B
:10399000039001200290052004901748FFF7DAFAFF
:1039A00014481430016841F4805101600068144CDF
:1039B00000F480500590114820604FF48270C4E9F3
:1039C0000105E5604FF400702561C4E90550102041
:1039D000C4E9070507206562C4E90A502046FFF7DD
:1039E000DDFE00B1FEE72068016841F040010160A2
:1039F00007B030BD303802400000024000300140C6
:103A0000CC0600200B4910B50A68136823F0400368
:103A100013600A6813684FF6C774234013600A687E
:103A20001368034313600868016841F040010160B6
:103A300010BD0000CC060020034908B1102001E0B1
:103A40004FF480100860704718080240034908B11D
:103A5000202001E04FF40010086070471808024071
:103A600000F02ABA10B50020FFF7E6FF012000F0B1
:103A70008DF80020FFF7EAFF052000F087F801200D
:103A8000FFF7E4FF4FF4967000F080F80120FFF795
:103A9000D3FFBDE8104040F2ED1000F077B8000011
:103AA00010B594B00020FF218DF808008DF840106B
:103AB0000390049005900690ADF81C00FFF7D2FF2C
:103AC0000820FFF79FFF284C012000F05FF807AAAD
:103AD00021462648FCF754FD88B112A8FCF798FF50
:103AE00070B123480090FCF7BDFF00990190884217
:103AF00007D208460199401A052802D9FEE7FEE7D9
:103B0000FEE707AA00210220FDF7DDFB002829D0EF
:103B100007A902A8FCF7BEFE002823D09DF80800E4
:103B2000012801D003281CD107A8009014230022EB
:103B300010A113A0FDF74AF8002813D00A2103A80A
:103B400000F036F800280DD007A910A8FCF7DAFE1F
:103B5000002807D007AA11A908A8FDF753FB0028E1
:103B600000D0012014B010BD406F40010030014072
:103B7000A086010031323334353637383930000011
:103B8000416E796C696E6B696E21000070B50646F6
:103B9000002509E00024FA20FFF762FF641CA4B2AC
:103BA000042CF8D36D1CADB2B542F3D370BD000048
:103BB000F8B5074600200D46ADF8000004464FF466
:103BC0007A760FE069463846FCF7D9FE012804D121
:103BD00008A13846FCF7F2FB30B93046FFF7D6FFB4
:103BE000641CA4B2AC42EDD3AC4201D30020F8BDBA
:103BF0000120F8BD302E302E302E30001FB50021B0
:103C00001648009101910291134A039102604FF40A
:103C1000803242605202826001240161047680F8A1
:103C200020100F4AC0E90A21C461C16080F8304009
:103C30004161FEF7FDFE08B1FEF723FE0220CDE94B
:103C40000004694605480294FEF71EFE002801D0D4
:103C5000FEF717FE1FBD000000220140CC0500202A
:103C60000100000F094808B5016841F480010160B6
:103C70000068002200F48000009011463820FFF711
:103C8000D5FABDE808403820FFF7C2BA3038024004
:103C90002DE9F04186B014216846FCF767FB3448F3
:103CA0000024016841F010010160016801F0100179
:103CB0000591016841F004010160016801F004010F
:103CC0000591016841F020010160016801F02001C7
:103CD0000591016841F080010160016801F08001F7
:103CE0000591016841F001010160016801F00101E5
:103CF0000591016841F00201016000681D4F00F06C
:103D000002004FF4E0660590002231463846FFF786
:103D100019FADFF86480002230214046FFF712FADA
:103D2000102001258DE8310069461448FFF712F98B
:103D30000096CDE90154694638460394FFF70AF925
:103D40003020CDE90005022569464046CDE902450F
:103D5000FFF700F940200090CDE90154694608487A
:103D6000CDE90345FFF7F6F806B0BDE8F0810000A5
:103D700030380240001402400008024000100240A7
:103D8000000402400F4810B50D4901604FF48271E4
:103D9000416000218160C1604FF400720161C0E99F
:103DA0000512C1610162416281620A21C162FFF7AD
:103DB000F5FC002803D0BDE81040FEF762BD10BD41
:103DC0000030014074060020FEE7FEE770477047B0
:103DD000FFF7C4B930B593B030216846FCF7C6FA96
:103DE00014210CA8FCF7C2FA1D480025016841F017
:103DF00080510160006800F08050119019480168FE
:103E000041F4804101600068022400F48040119078
:103E100001200090000401908001CDE9064008AA2D
:103E20000420A82182E813000B906846FFF700FBEE
:103E300008B172B6FEE70CA90F2081E831004FF4FB
:103E4000A0500F904FF48050109005210CA8FFF760
:103E50001FFA002801D072B6FEE713B030BD000093
:103E600040380240007000400248016841F470018F
:103E70000160704788ED00E0FEE70907090E0028A1
:103E800004DB00F1E02080F80014704700F00F0020
:103E900000F1E02080F8141D7047000010B5FFF716
:103EA00091FA0349B0FBF1F00249086010BD00002F
:103EB00040420F000000002070B54FF0E0240022C7
:103EC00065690949A36909684843A1699942FCD019
:103ED00002D2A3EB010302E0A5EB010633441A442E
:103EE0000B468242F1D370BD00000020FFF73EF97F
:103EF000FFF770FFFFF7CCFEFFF7B4FEFFF742FFBE
:103F0000FFF77CFEFFF7CAFFFFF728FDFFF7C8FDAC
:103F1000012802D000F06CF8FEE700F021F8B0B103
:103F20000C4C012291022046FFF70CF901225102AC
:103F30002046FFF707F9012211022046FFF702F998
:103F40004FF4347204490548FEF7E8FDFEE700F03F
:103F500065F8FEE7001402402C000020CC0500208C
:103F600010B517488AB003AC0EC884E80E0007C825
:103F700006AB83E80700002211460120FDF7A3F9F4
:103F800000242346224606A903A80094FCF71EFE3F
:103F900000230CA20FA112A00094FCF7D2FB1E205C
:103FA0000121CDE9001041F2E10102940B4609A282
:103FB0000220FDF7D7F9002800D001200AB010BD7B
:103FC000544000083235352E3235352E3235352EF7
:103FD000300000003139322E3136382E302E31008B
:103FE0003139322E3136382E302E31313100000049
:103FF00010B5094C00224FF480612046FFF7A2F86B
:10400000002261152046FFF79DF820460122BDE8F9
:1040100010401102FFF796B80014024010B5094C89
:10402000012291022046FFF78DF80122510220461D
:10403000FFF788F80022A1152046BDE81040FFF7E1
:1040400081B80000001402404FF00000E1EE100AB9
:1040500070470000485947535F3247000000000096
:104060004859475333333035000000061016000618
:104070001016000000000000000001020304060703
:104080000809000056312E312E382D47000000005F
:10409000312E312E362D4500312E312E362D370062
:1040A000312E312E382D3800312E312E362D330061
:1040B000312E312E382D5200312E312E362D340036
:1040C000312E312E362D4E003235352E3235352EED
:1040D0003235352E3235350053544D3332463400A7
:1040E000000000000000000041494B5BDB41000084
:1040F00010410008000000202C000000C40100084E
:104100003C4100082C000020BC0D0000E00100082C
:10411000000000000100000001000000100000008D
:10412000000000000024F400312E312E312D31002A
:0C41300000000000000000000000000083
:040000050800018965
:00000001FF
